{
  "_format": "hh-sol-artifact-1",
  "contractName": "voting",
  "sourceName": "contracts/VotingContract.sol",
  "abi": [
    {
      "inputs": [],
      "stateMutability": "nonpayable",
      "type": "constructor"
    },
    {
      "anonymous": false,
      "inputs": [
        {
          "indexed": true,
          "internalType": "uint256",
          "name": "candidateid",
          "type": "uint256"
        },
        {
          "indexed": false,
          "internalType": "uint256",
          "name": "age",
          "type": "uint256"
        },
        {
          "indexed": false,
          "internalType": "string",
          "name": "name",
          "type": "string"
        },
        {
          "indexed": false,
          "internalType": "string",
          "name": "image",
          "type": "string"
        },
        {
          "indexed": false,
          "internalType": "string",
          "name": "election",
          "type": "string"
        },
        {
          "indexed": false,
          "internalType": "uint256",
          "name": "votecount",
          "type": "uint256"
        },
        {
          "indexed": false,
          "internalType": "address",
          "name": "_address",
          "type": "address"
        },
        {
          "indexed": false,
          "internalType": "string",
          "name": "ipfs",
          "type": "string"
        }
      ],
      "name": "CandidateCreate",
      "type": "event"
    },
    {
      "anonymous": false,
      "inputs": [
        {
          "indexed": true,
          "internalType": "uint256",
          "name": "electionid",
          "type": "uint256"
        },
        {
          "indexed": false,
          "internalType": "string",
          "name": "name",
          "type": "string"
        },
        {
          "indexed": false,
          "internalType": "string",
          "name": "description",
          "type": "string"
        },
        {
          "indexed": false,
          "internalType": "string",
          "name": "startDate",
          "type": "string"
        },
        {
          "indexed": false,
          "internalType": "string",
          "name": "endDate",
          "type": "string"
        },
        {
          "indexed": false,
          "internalType": "string",
          "name": "election_ipfs",
          "type": "string"
        }
      ],
      "name": "ElectionCreated",
      "type": "event"
    },
    {
      "anonymous": false,
      "inputs": [
        {
          "indexed": true,
          "internalType": "uint256",
          "name": "voter_voterId",
          "type": "uint256"
        },
        {
          "indexed": false,
          "internalType": "string",
          "name": "voter_name",
          "type": "string"
        },
        {
          "indexed": false,
          "internalType": "string",
          "name": "voter_image",
          "type": "string"
        },
        {
          "indexed": false,
          "internalType": "address",
          "name": "voter_address",
          "type": "address"
        },
        {
          "indexed": false,
          "internalType": "uint256",
          "name": "voter_allowed",
          "type": "uint256"
        },
        {
          "indexed": false,
          "internalType": "bool",
          "name": "voter_voted",
          "type": "bool"
        },
        {
          "indexed": false,
          "internalType": "uint256",
          "name": "voter_vote",
          "type": "uint256"
        },
        {
          "indexed": false,
          "internalType": "string",
          "name": "voter_ipfs",
          "type": "string"
        }
      ],
      "name": "VoterCreated",
      "type": "event"
    },
    {
      "inputs": [],
      "name": "_candidateid",
      "outputs": [
        {
          "internalType": "uint256",
          "name": "_value",
          "type": "uint256"
        }
      ],
      "stateMutability": "view",
      "type": "function"
    },
    {
      "inputs": [],
      "name": "_electionid",
      "outputs": [
        {
          "internalType": "uint256",
          "name": "_value",
          "type": "uint256"
        }
      ],
      "stateMutability": "view",
      "type": "function"
    },
    {
      "inputs": [],
      "name": "_voterid",
      "outputs": [
        {
          "internalType": "uint256",
          "name": "_value",
          "type": "uint256"
        }
      ],
      "stateMutability": "view",
      "type": "function"
    },
    {
      "inputs": [
        {
          "internalType": "uint256",
          "name": "",
          "type": "uint256"
        }
      ],
      "name": "candidateAddress",
      "outputs": [
        {
          "internalType": "address",
          "name": "",
          "type": "address"
        }
      ],
      "stateMutability": "view",
      "type": "function"
    },
    {
      "inputs": [
        {
          "internalType": "address",
          "name": "",
          "type": "address"
        }
      ],
      "name": "candidates",
      "outputs": [
        {
          "internalType": "uint256",
          "name": "candidateid",
          "type": "uint256"
        },
        {
          "internalType": "uint256",
          "name": "age",
          "type": "uint256"
        },
        {
          "internalType": "string",
          "name": "name",
          "type": "string"
        },
        {
          "internalType": "string",
          "name": "image",
          "type": "string"
        },
        {
          "internalType": "string",
          "name": "election",
          "type": "string"
        },
        {
          "internalType": "uint256",
          "name": "votecount",
          "type": "uint256"
        },
        {
          "internalType": "address",
          "name": "_address",
          "type": "address"
        },
        {
          "internalType": "string",
          "name": "ipfs",
          "type": "string"
        }
      ],
      "stateMutability": "view",
      "type": "function"
    },
    {
      "inputs": [
        {
          "internalType": "string",
          "name": "_name",
          "type": "string"
        },
        {
          "internalType": "string",
          "name": "_description",
          "type": "string"
        },
        {
          "internalType": "string",
          "name": "_startDate",
          "type": "string"
        },
        {
          "internalType": "string",
          "name": "_endDate",
          "type": "string"
        },
        {
          "internalType": "string",
          "name": "_ipfs",
          "type": "string"
        }
      ],
      "name": "createElection",
      "outputs": [],
      "stateMutability": "nonpayable",
      "type": "function"
    },
    {
      "inputs": [
        {
          "internalType": "uint256",
          "name": "",
          "type": "uint256"
        }
      ],
      "name": "electionIds",
      "outputs": [
        {
          "internalType": "uint256",
          "name": "",
          "type": "uint256"
        }
      ],
      "stateMutability": "view",
      "type": "function"
    },
    {
      "inputs": [
        {
          "internalType": "uint256",
          "name": "",
          "type": "uint256"
        }
      ],
      "name": "elections",
      "outputs": [
        {
          "internalType": "uint256",
          "name": "electionid",
          "type": "uint256"
        },
        {
          "internalType": "string",
          "name": "name",
          "type": "string"
        },
        {
          "internalType": "string",
          "name": "description",
          "type": "string"
        },
        {
          "internalType": "string",
          "name": "startDate",
          "type": "string"
        },
        {
          "internalType": "string",
          "name": "endDate",
          "type": "string"
        },
        {
          "internalType": "string",
          "name": "election_ipfs",
          "type": "string"
        }
      ],
      "stateMutability": "view",
      "type": "function"
    },
    {
      "inputs": [],
      "name": "getCandidate",
      "outputs": [
        {
          "internalType": "address[]",
          "name": "",
          "type": "address[]"
        }
      ],
      "stateMutability": "view",
      "type": "function"
    },
    {
      "inputs": [
        {
          "internalType": "address",
          "name": "_address",
          "type": "address"
        }
      ],
      "name": "getCandidateData",
      "outputs": [
        {
          "components": [
            {
              "internalType": "uint256",
              "name": "candidateid",
              "type": "uint256"
            },
            {
              "internalType": "uint256",
              "name": "age",
              "type": "uint256"
            },
            {
              "internalType": "string",
              "name": "name",
              "type": "string"
            },
            {
              "internalType": "string",
              "name": "image",
              "type": "string"
            },
            {
              "internalType": "string",
              "name": "election",
              "type": "string"
            },
            {
              "internalType": "uint256",
              "name": "votecount",
              "type": "uint256"
            },
            {
              "internalType": "address",
              "name": "_address",
              "type": "address"
            },
            {
              "internalType": "string",
              "name": "ipfs",
              "type": "string"
            }
          ],
          "internalType": "struct voting.Candidate",
          "name": "",
          "type": "tuple"
        }
      ],
      "stateMutability": "view",
      "type": "function"
    },
    {
      "inputs": [],
      "name": "getCandidateLength",
      "outputs": [
        {
          "internalType": "uint256",
          "name": "",
          "type": "uint256"
        }
      ],
      "stateMutability": "view",
      "type": "function"
    },
    {
      "inputs": [],
      "name": "getElections",
      "outputs": [
        {
          "internalType": "uint256[]",
          "name": "",
          "type": "uint256[]"
        }
      ],
      "stateMutability": "view",
      "type": "function"
    },
    {
      "inputs": [],
      "name": "getVotedVoterList",
      "outputs": [
        {
          "internalType": "address[]",
          "name": "",
          "type": "address[]"
        }
      ],
      "stateMutability": "view",
      "type": "function"
    },
    {
      "inputs": [],
      "name": "getVoterLength",
      "outputs": [
        {
          "internalType": "uint256",
          "name": "",
          "type": "uint256"
        }
      ],
      "stateMutability": "view",
      "type": "function"
    },
    {
      "inputs": [
        {
          "internalType": "address",
          "name": "_address",
          "type": "address"
        }
      ],
      "name": "getVoterdata",
      "outputs": [
        {
          "internalType": "uint256",
          "name": "",
          "type": "uint256"
        },
        {
          "internalType": "string",
          "name": "",
          "type": "string"
        },
        {
          "internalType": "string",
          "name": "",
          "type": "string"
        },
        {
          "internalType": "address",
          "name": "",
          "type": "address"
        },
        {
          "internalType": "uint256",
          "name": "",
          "type": "uint256"
        },
        {
          "internalType": "bool",
          "name": "",
          "type": "bool"
        },
        {
          "internalType": "string",
          "name": "",
          "type": "string"
        }
      ],
      "stateMutability": "view",
      "type": "function"
    },
    {
      "inputs": [],
      "name": "getVotersList",
      "outputs": [
        {
          "internalType": "address[]",
          "name": "",
          "type": "address[]"
        }
      ],
      "stateMutability": "view",
      "type": "function"
    },
    {
      "inputs": [
        {
          "internalType": "address",
          "name": "_address",
          "type": "address"
        },
        {
          "internalType": "uint256",
          "name": "_age",
          "type": "uint256"
        },
        {
          "internalType": "string",
          "name": "_name",
          "type": "string"
        },
        {
          "internalType": "string",
          "name": "_image",
          "type": "string"
        },
        {
          "internalType": "string",
          "name": "_election",
          "type": "string"
        },
        {
          "internalType": "string",
          "name": "_ipfs",
          "type": "string"
        }
      ],
      "name": "setCandidate",
      "outputs": [],
      "stateMutability": "nonpayable",
      "type": "function"
    },
    {
      "inputs": [
        {
          "internalType": "address",
          "name": "_candidateAddress",
          "type": "address"
        },
        {
          "internalType": "uint256",
          "name": "_candidateVoteId",
          "type": "uint256"
        }
      ],
      "name": "vote",
      "outputs": [],
      "stateMutability": "nonpayable",
      "type": "function"
    },
    {
      "inputs": [
        {
          "internalType": "uint256",
          "name": "",
          "type": "uint256"
        }
      ],
      "name": "votedVoters",
      "outputs": [
        {
          "internalType": "address",
          "name": "",
          "type": "address"
        }
      ],
      "stateMutability": "view",
      "type": "function"
    },
    {
      "inputs": [
        {
          "internalType": "address",
          "name": "_address",
          "type": "address"
        },
        {
          "internalType": "string",
          "name": "_name",
          "type": "string"
        },
        {
          "internalType": "string",
          "name": "_image",
          "type": "string"
        },
        {
          "internalType": "string",
          "name": "_ipfs",
          "type": "string"
        }
      ],
      "name": "voterRight",
      "outputs": [],
      "stateMutability": "nonpayable",
      "type": "function"
    },
    {
      "inputs": [
        {
          "internalType": "address",
          "name": "",
          "type": "address"
        }
      ],
      "name": "voters",
      "outputs": [
        {
          "internalType": "uint256",
          "name": "voter_voterId",
          "type": "uint256"
        },
        {
          "internalType": "string",
          "name": "voter_name",
          "type": "string"
        },
        {
          "internalType": "string",
          "name": "voter_image",
          "type": "string"
        },
        {
          "internalType": "address",
          "name": "voter_address",
          "type": "address"
        },
        {
          "internalType": "uint256",
          "name": "voter_allowed",
          "type": "uint256"
        },
        {
          "internalType": "bool",
          "name": "voter_voted",
          "type": "bool"
        },
        {
          "internalType": "uint256",
          "name": "voter_vote",
          "type": "uint256"
        },
        {
          "internalType": "string",
          "name": "voter_ipfs",
          "type": "string"
        }
      ],
      "stateMutability": "view",
      "type": "function"
    },
    {
      "inputs": [
        {
          "internalType": "uint256",
          "name": "",
          "type": "uint256"
        }
      ],
      "name": "votersAddress",
      "outputs": [
        {
          "internalType": "address",
          "name": "",
          "type": "address"
        }
      ],
      "stateMutability": "view",
      "type": "function"
    },
    {
      "inputs": [],
      "name": "votingOrganizer",
      "outputs": [
        {
          "internalType": "address",
          "name": "",
          "type": "address"
        }
      ],
      "stateMutability": "view",
      "type": "function"
    }
  ],
  "bytecode": "0x608060405234801561001057600080fd5b5033600360006101000a81548173ffffffffffffffffffffffffffffffffffffffff021916908373ffffffffffffffffffffffffffffffffffffffff1602179055506132c5806100616000396000f3fe608060405234801561001057600080fd5b506004361061014d5760003560e01c806368baccf0116100c35780638e9456851161007c5780638e945685146103d25780639f3a7f52146103f0578063a3ec138d1461040e578063bc86f38514610445578063c5036fd414610463578063f7522a83146104995761014d565b806368baccf0146102f557806370218b851461031357806373611acd146103315780637831ffb31461034f578063880e49481461037f5780638ab66a901461039b5761014d565b80633a88251a116101155780633a88251a1461020a57806343242daa1461023a57806350efbc751461026a5780635cc48aa7146102865780635e6fef01146102a45780635f74bbde146102d95761014d565b806302330a61146101525780630361419e1461018257806305ad45a41461019e5780630cdc4e26146101bc5780632a466ac7146101da575b600080fd5b61016c60048036038101906101679190612251565b6104b7565b604051610179919061228d565b60405180910390f35b61019c6004803603810190610197919061244c565b6104db565b005b6101a66107e4565b6040516101b3919061228d565b60405180910390f35b6101c46107f1565b6040516101d1919061228d565b60405180910390f35b6101f460048036038101906101ef9190612507565b6107fd565b604051610201919061269f565b60405180910390f35b610224600480360381019061021f9190612251565b610b13565b60405161023191906126d0565b60405180910390f35b610254600480360381019061024f9190612251565b610b52565b60405161026191906126d0565b60405180910390f35b610284600480360381019061027f91906126eb565b610b91565b005b61028e610d88565b60405161029b91906126d0565b60405180910390f35b6102be60048036038101906102b99190612251565b610dae565b6040516102d09695949392919061283c565b60405180910390f35b6102f360048036038101906102ee91906128c0565b611092565b005b6102fd61125a565b60405161030a919061228d565b60405180910390f35b61031b611266565b60405161032891906129af565b60405180910390f35b610339611332565b604051610346919061228d565b60405180910390f35b61036960048036038101906103649190612251565b61133e565b60405161037691906126d0565b60405180910390f35b610399600480360381019061039491906129d1565b61137d565b005b6103b560048036038101906103b09190612507565b61161e565b6040516103c9989796959493929190612ace565b60405180910390f35b6103da6118a6565b6040516103e791906129af565b60405180910390f35b6103f8611934565b6040516104059190612c17565b60405180910390f35b61042860048036038101906104239190612507565b61198c565b60405161043c989796959493929190612c54565b60405180910390f35b61044d611b99565b60405161045a91906129af565b60405180910390f35b61047d60048036038101906104789190612507565b611c27565b6040516104909796959493929190612ce7565b60405180910390f35b6104a1611fef565b6040516104ae919061228d565b60405180910390f35b600681815481106104c757600080fd5b906000526020600020016000915090505481565b6105196040518060400160405280601a81526020017f566f74657272696768742066756e6374696f6e2063616c6c6564000000000000815250611ffc565b3373ffffffffffffffffffffffffffffffffffffffff16600360009054906101000a900473ffffffffffffffffffffffffffffffffffffffff1673ffffffffffffffffffffffffffffffffffffffff16146105a9576040517f08c379a00000000000000000000000000000000000000000000000000000000081526004016105a090612db7565b60405180910390fd5b6105b36000612095565b60006105bf60006120ab565b90506000600a60008773ffffffffffffffffffffffffffffffffffffffff1673ffffffffffffffffffffffffffffffffffffffff1681526020019081526020016000209050600081600401541461061557600080fd5b60018160040181905550848160010190805190602001906106379291906120ff565b50838160020190805190602001906106509291906120ff565b50858160030160006101000a81548173ffffffffffffffffffffffffffffffffffffffff021916908373ffffffffffffffffffffffffffffffffffffffff1602179055508181600001819055506103e8816006018190555060008160050160006101000a81548160ff021916908315150217905550828160070190805190602001906106dd9291906120ff565b506009869080600181540180825580915050600190039060005260206000200160009091909190916101000a81548173ffffffffffffffffffffffffffffffffffffffff021916908373ffffffffffffffffffffffffffffffffffffffff160217905550817ff5f39971dd62d9929e3a9feaa6bb77fe7c7da0001babff8a65a7e51ad0201c1986868985600401548660050160009054906101000a900460ff1687600601548a6040516107969796959493929190612dd7565b60405180910390a26107dc6040518060400160405280601a81526020017f566f74657272696768742066756e6374696f6e2063616c6c6564000000000000815250611ffc565b505050505050565b6000600980549050905090565b60008060000154905081565b610805612185565b600560008373ffffffffffffffffffffffffffffffffffffffff1673ffffffffffffffffffffffffffffffffffffffff16815260200190815260200160002060405180610100016040529081600082015481526020016001820154815260200160028201805461087490612e8a565b80601f01602080910402602001604051908101604052809291908181526020018280546108a090612e8a565b80156108ed5780601f106108c2576101008083540402835291602001916108ed565b820191906000526020600020905b8154815290600101906020018083116108d057829003601f168201915b5050505050815260200160038201805461090690612e8a565b80601f016020809104026020016040519081016040528092919081815260200182805461093290612e8a565b801561097f5780601f106109545761010080835404028352916020019161097f565b820191906000526020600020905b81548152906001019060200180831161096257829003601f168201915b5050505050815260200160048201805461099890612e8a565b80601f01602080910402602001604051908101604052809291908181526020018280546109c490612e8a565b8015610a115780601f106109e657610100808354040283529160200191610a11565b820191906000526020600020905b8154815290600101906020018083116109f457829003601f168201915b50505050508152602001600582015481526020016006820160009054906101000a900473ffffffffffffffffffffffffffffffffffffffff1673ffffffffffffffffffffffffffffffffffffffff1673ffffffffffffffffffffffffffffffffffffffff168152602001600782018054610a8a90612e8a565b80601f0160208091040260200160405190810160405280929190818152602001828054610ab690612e8a565b8015610b035780601f10610ad857610100808354040283529160200191610b03565b820191906000526020600020905b815481529060010190602001808311610ae657829003601f168201915b5050505050815250509050919050565b60048181548110610b2357600080fd5b906000526020600020016000915054906101000a900473ffffffffffffffffffffffffffffffffffffffff1681565b60098181548110610b6257600080fd5b906000526020600020016000915054906101000a900473ffffffffffffffffffffffffffffffffffffffff1681565b3373ffffffffffffffffffffffffffffffffffffffff16600360009054906101000a900473ffffffffffffffffffffffffffffffffffffffff1673ffffffffffffffffffffffffffffffffffffffff1614610c21576040517f08c379a0000000000000000000000000000000000000000000000000000000008152600401610c1890612f2e565b60405180910390fd5b610c2b6002612095565b6000610c3760026120ab565b90506040518060c001604052808281526020018781526020018681526020018581526020018481526020018381525060076000838152602001908152602001600020600082015181600001556020820151816001019080519060200190610c9f9291906120ff565b506040820151816002019080519060200190610cbc9291906120ff565b506060820151816003019080519060200190610cd99291906120ff565b506080820151816004019080519060200190610cf69291906120ff565b5060a0820151816005019080519060200190610d139291906120ff565b509050506006819080600181540180825580915050600190039060005260206000200160009091909190915055807f435a551a24152de0a9f215e3ae7a91ffbdb1f80ec47fa68eb04bfaf5d434de078787878787604051610d78959493929190612f4e565b60405180910390a2505050505050565b600360009054906101000a900473ffffffffffffffffffffffffffffffffffffffff1681565b6007602052806000526040600020600091509050806000015490806001018054610dd790612e8a565b80601f0160208091040260200160405190810160405280929190818152602001828054610e0390612e8a565b8015610e505780601f10610e2557610100808354040283529160200191610e50565b820191906000526020600020905b815481529060010190602001808311610e3357829003601f168201915b505050505090806002018054610e6590612e8a565b80601f0160208091040260200160405190810160405280929190818152602001828054610e9190612e8a565b8015610ede5780601f10610eb357610100808354040283529160200191610ede565b820191906000526020600020905b815481529060010190602001808311610ec157829003601f168201915b505050505090806003018054610ef390612e8a565b80601f0160208091040260200160405190810160405280929190818152602001828054610f1f90612e8a565b8015610f6c5780601f10610f4157610100808354040283529160200191610f6c565b820191906000526020600020905b815481529060010190602001808311610f4f57829003601f168201915b505050505090806004018054610f8190612e8a565b80601f0160208091040260200160405190810160405280929190818152602001828054610fad90612e8a565b8015610ffa5780601f10610fcf57610100808354040283529160200191610ffa565b820191906000526020600020905b815481529060010190602001808311610fdd57829003601f168201915b50505050509080600501805461100f90612e8a565b80601f016020809104026020016040519081016040528092919081815260200182805461103b90612e8a565b80156110885780601f1061105d57610100808354040283529160200191611088565b820191906000526020600020905b81548152906001019060200180831161106b57829003601f168201915b5050505050905086565b6000600a60003373ffffffffffffffffffffffffffffffffffffffff1673ffffffffffffffffffffffffffffffffffffffff16815260200190815260200160002090508060050160009054906101000a900460ff1615611127576040517f08c379a000000000000000000000000000000000000000000000000000000000815260040161111e90613010565b60405180910390fd5b60008160040154141561116f576040517f08c379a00000000000000000000000000000000000000000000000000000000081526004016111669061307c565b60405180910390fd5b60018160050160006101000a81548160ff0219169083151502179055508181600601819055506008339080600181540180825580915050600190039060005260206000200160009091909190916101000a81548173ffffffffffffffffffffffffffffffffffffffff021916908373ffffffffffffffffffffffffffffffffffffffff1602179055508060040154600560008573ffffffffffffffffffffffffffffffffffffffff1673ffffffffffffffffffffffffffffffffffffffff168152602001908152602001600020600501600082825461124e91906130cb565b92505081905550505050565b60018060000154905081565b60606112a66040518060400160405280601c81526020017f67657443616e6469646174652066756e6374696f6e2063616c6c656400000000815250611ffc565b600480548060200260200160405190810160405280929190818152602001828054801561132857602002820191906000526020600020905b8160009054906101000a900473ffffffffffffffffffffffffffffffffffffffff1673ffffffffffffffffffffffffffffffffffffffff16815260200190600101908083116112de575b5050505050905090565b60028060000154905081565b6008818154811061134e57600080fd5b906000526020600020016000915054906101000a900473ffffffffffffffffffffffffffffffffffffffff1681565b6113bb6040518060400160405280601c81526020017f67657443616e6469646174652066756e6374696f6e2063616c6c656400000000815250611ffc565b3373ffffffffffffffffffffffffffffffffffffffff16600360009054906101000a900473ffffffffffffffffffffffffffffffffffffffff1673ffffffffffffffffffffffffffffffffffffffff161461144b576040517f08c379a000000000000000000000000000000000000000000000000000000000815260040161144290613193565b60405180910390fd5b6114556001612095565b600061146160016120ab565b90506000600560008973ffffffffffffffffffffffffffffffffffffffff1673ffffffffffffffffffffffffffffffffffffffff1681526020019081526020016000209050868160010181905550858160020190805190602001906114c79291906120ff565b50818160000181905550848160030190805190602001906114e99291906120ff565b50838160040190805190602001906115029291906120ff565b5060008160050181905550828160070190805190602001906115259291906120ff565b50878160060160006101000a81548173ffffffffffffffffffffffffffffffffffffffff021916908373ffffffffffffffffffffffffffffffffffffffff1602179055506004889080600181540180825580915050600190039060005260206000200160009091909190916101000a81548173ffffffffffffffffffffffffffffffffffffffff021916908373ffffffffffffffffffffffffffffffffffffffff160217905550817fd4db6690348aaff94dcb8f9397960a25d509c696d490eafc52ef8cb11a7f0ed68888888886600501548e8a60405161160c97969594939291906131b3565b60405180910390a25050505050505050565b600560205280600052604060002060009150905080600001549080600101549080600201805461164d90612e8a565b80601f016020809104026020016040519081016040528092919081815260200182805461167990612e8a565b80156116c65780601f1061169b576101008083540402835291602001916116c6565b820191906000526020600020905b8154815290600101906020018083116116a957829003601f168201915b5050505050908060030180546116db90612e8a565b80601f016020809104026020016040519081016040528092919081815260200182805461170790612e8a565b80156117545780601f1061172957610100808354040283529160200191611754565b820191906000526020600020905b81548152906001019060200180831161173757829003601f168201915b50505050509080600401805461176990612e8a565b80601f016020809104026020016040519081016040528092919081815260200182805461179590612e8a565b80156117e25780601f106117b7576101008083540402835291602001916117e2565b820191906000526020600020905b8154815290600101906020018083116117c557829003601f168201915b5050505050908060050154908060060160009054906101000a900473ffffffffffffffffffffffffffffffffffffffff169080600701805461182390612e8a565b80601f016020809104026020016040519081016040528092919081815260200182805461184f90612e8a565b801561189c5780601f106118715761010080835404028352916020019161189c565b820191906000526020600020905b81548152906001019060200180831161187f57829003601f168201915b5050505050905088565b6060600880548060200260200160405190810160405280929190818152602001828054801561192a57602002820191906000526020600020905b8160009054906101000a900473ffffffffffffffffffffffffffffffffffffffff1673ffffffffffffffffffffffffffffffffffffffff16815260200190600101908083116118e0575b5050505050905090565b6060600680548060200260200160405190810160405280929190818152602001828054801561198257602002820191906000526020600020905b81548152602001906001019080831161196e575b5050505050905090565b600a6020528060005260406000206000915090508060000154908060010180546119b590612e8a565b80601f01602080910402602001604051908101604052809291908181526020018280546119e190612e8a565b8015611a2e5780601f10611a0357610100808354040283529160200191611a2e565b820191906000526020600020905b815481529060010190602001808311611a1157829003601f168201915b505050505090806002018054611a4390612e8a565b80601f0160208091040260200160405190810160405280929190818152602001828054611a6f90612e8a565b8015611abc5780601f10611a9157610100808354040283529160200191611abc565b820191906000526020600020905b815481529060010190602001808311611a9f57829003601f168201915b5050505050908060030160009054906101000a900473ffffffffffffffffffffffffffffffffffffffff16908060040154908060050160009054906101000a900460ff1690806006015490806007018054611b1690612e8a565b80601f0160208091040260200160405190810160405280929190818152602001828054611b4290612e8a565b8015611b8f5780601f10611b6457610100808354040283529160200191611b8f565b820191906000526020600020905b815481529060010190602001808311611b7257829003601f168201915b5050505050905088565b60606009805480602002602001604051908101604052809291908181526020018280548015611c1d57602002820191906000526020600020905b8160009054906101000a900473ffffffffffffffffffffffffffffffffffffffff1673ffffffffffffffffffffffffffffffffffffffff1681526020019060010190808311611bd3575b5050505050905090565b600060608060008060006060600a60008973ffffffffffffffffffffffffffffffffffffffff1673ffffffffffffffffffffffffffffffffffffffff16815260200190815260200160002060000154600a60008a73ffffffffffffffffffffffffffffffffffffffff1673ffffffffffffffffffffffffffffffffffffffff168152602001908152602001600020600101600a60008b73ffffffffffffffffffffffffffffffffffffffff1673ffffffffffffffffffffffffffffffffffffffff168152602001908152602001600020600201600a60008c73ffffffffffffffffffffffffffffffffffffffff1673ffffffffffffffffffffffffffffffffffffffff16815260200190815260200160002060030160009054906101000a900473ffffffffffffffffffffffffffffffffffffffff16600a60008d73ffffffffffffffffffffffffffffffffffffffff1673ffffffffffffffffffffffffffffffffffffffff16815260200190815260200160002060040154600a60008e73ffffffffffffffffffffffffffffffffffffffff1673ffffffffffffffffffffffffffffffffffffffff16815260200190815260200160002060050160009054906101000a900460ff16600a60008f73ffffffffffffffffffffffffffffffffffffffff1673ffffffffffffffffffffffffffffffffffffffff168152602001908152602001600020600701858054611e3e90612e8a565b80601f0160208091040260200160405190810160405280929190818152602001828054611e6a90612e8a565b8015611eb75780601f10611e8c57610100808354040283529160200191611eb7565b820191906000526020600020905b815481529060010190602001808311611e9a57829003601f168201915b50505050509550848054611eca90612e8a565b80601f0160208091040260200160405190810160405280929190818152602001828054611ef690612e8a565b8015611f435780601f10611f1857610100808354040283529160200191611f43565b820191906000526020600020905b815481529060010190602001808311611f2657829003601f168201915b50505050509450808054611f5690612e8a565b80601f0160208091040260200160405190810160405280929190818152602001828054611f8290612e8a565b8015611fcf5780601f10611fa457610100808354040283529160200191611fcf565b820191906000526020600020905b815481529060010190602001808311611fb257829003601f168201915b505050505090509650965096509650965096509650919395979092949650565b6000600480549050905090565b61209281604051602401612010919061323e565b6040516020818303038152906040527f41304fac000000000000000000000000000000000000000000000000000000007bffffffffffffffffffffffffffffffffffffffffffffffffffffffff19166020820180517bffffffffffffffffffffffffffffffffffffffffffffffffffffffff83818316178352505050506120b9565b50565b6001816000016000828254019250508190555050565b600081600001549050919050565b6120d0816120c86120d36120f4565b63ffffffff16565b50565b60006a636f6e736f6c652e6c6f679050600080835160208501845afa505050565b6121e0819050919050565b82805461210b90612e8a565b90600052602060002090601f01602090048101928261212d5760008555612174565b82601f1061214657805160ff1916838001178555612174565b82800160010185558215612174579182015b82811115612173578251825591602001919060010190612158565b5b50905061218191906121ea565b5090565b604051806101000160405280600081526020016000815260200160608152602001606081526020016060815260200160008152602001600073ffffffffffffffffffffffffffffffffffffffff168152602001606081525090565b6121e8613260565b565b5b808211156122035760008160009055506001016121eb565b5090565b6000604051905090565b600080fd5b600080fd5b6000819050919050565b61222e8161221b565b811461223957600080fd5b50565b60008135905061224b81612225565b92915050565b60006020828403121561226757612266612211565b5b60006122758482850161223c565b91505092915050565b6122878161221b565b82525050565b60006020820190506122a2600083018461227e565b92915050565b600073ffffffffffffffffffffffffffffffffffffffff82169050919050565b60006122d3826122a8565b9050919050565b6122e3816122c8565b81146122ee57600080fd5b50565b600081359050612300816122da565b92915050565b600080fd5b600080fd5b6000601f19601f8301169050919050565b7f4e487b7100000000000000000000000000000000000000000000000000000000600052604160045260246000fd5b61235982612310565b810181811067ffffffffffffffff8211171561237857612377612321565b5b80604052505050565b600061238b612207565b90506123978282612350565b919050565b600067ffffffffffffffff8211156123b7576123b6612321565b5b6123c082612310565b9050602081019050919050565b82818337600083830152505050565b60006123ef6123ea8461239c565b612381565b90508281526020810184848401111561240b5761240a61230b565b5b6124168482856123cd565b509392505050565b600082601f83011261243357612432612306565b5b81356124438482602086016123dc565b91505092915050565b6000806000806080858703121561246657612465612211565b5b6000612474878288016122f1565b945050602085013567ffffffffffffffff81111561249557612494612216565b5b6124a18782880161241e565b935050604085013567ffffffffffffffff8111156124c2576124c1612216565b5b6124ce8782880161241e565b925050606085013567ffffffffffffffff8111156124ef576124ee612216565b5b6124fb8782880161241e565b91505092959194509250565b60006020828403121561251d5761251c612211565b5b600061252b848285016122f1565b91505092915050565b61253d8161221b565b82525050565b600081519050919050565b600082825260208201905092915050565b60005b8381101561257d578082015181840152602081019050612562565b8381111561258c576000848401525b50505050565b600061259d82612543565b6125a7818561254e565b93506125b781856020860161255f565b6125c081612310565b840191505092915050565b6125d4816122c8565b82525050565b6000610100830160008301516125f36000860182612534565b5060208301516126066020860182612534565b506040830151848203604086015261261e8282612592565b915050606083015184820360608601526126388282612592565b915050608083015184820360808601526126528282612592565b91505060a083015161266760a0860182612534565b5060c083015161267a60c08601826125cb565b5060e083015184820360e08601526126928282612592565b9150508091505092915050565b600060208201905081810360008301526126b981846125da565b905092915050565b6126ca816122c8565b82525050565b60006020820190506126e560008301846126c1565b92915050565b600080600080600060a0868803121561270757612706612211565b5b600086013567ffffffffffffffff81111561272557612724612216565b5b6127318882890161241e565b955050602086013567ffffffffffffffff81111561275257612751612216565b5b61275e8882890161241e565b945050604086013567ffffffffffffffff81111561277f5761277e612216565b5b61278b8882890161241e565b935050606086013567ffffffffffffffff8111156127ac576127ab612216565b5b6127b88882890161241e565b925050608086013567ffffffffffffffff8111156127d9576127d8612216565b5b6127e58882890161241e565b9150509295509295909350565b600082825260208201905092915050565b600061280e82612543565b61281881856127f2565b935061282881856020860161255f565b61283181612310565b840191505092915050565b600060c082019050612851600083018961227e565b81810360208301526128638188612803565b905081810360408301526128778187612803565b9050818103606083015261288b8186612803565b9050818103608083015261289f8185612803565b905081810360a08301526128b38184612803565b9050979650505050505050565b600080604083850312156128d7576128d6612211565b5b60006128e5858286016122f1565b92505060206128f68582860161223c565b9150509250929050565b600081519050919050565b600082825260208201905092915050565b6000819050602082019050919050565b600061293883836125cb565b60208301905092915050565b6000602082019050919050565b600061295c82612900565b612966818561290b565b93506129718361291c565b8060005b838110156129a2578151612989888261292c565b975061299483612944565b925050600181019050612975565b5085935050505092915050565b600060208201905081810360008301526129c98184612951565b905092915050565b60008060008060008060c087890312156129ee576129ed612211565b5b60006129fc89828a016122f1565b9650506020612a0d89828a0161223c565b955050604087013567ffffffffffffffff811115612a2e57612a2d612216565b5b612a3a89828a0161241e565b945050606087013567ffffffffffffffff811115612a5b57612a5a612216565b5b612a6789828a0161241e565b935050608087013567ffffffffffffffff811115612a8857612a87612216565b5b612a9489828a0161241e565b92505060a087013567ffffffffffffffff811115612ab557612ab4612216565b5b612ac189828a0161241e565b9150509295509295509295565b600061010082019050612ae4600083018b61227e565b612af1602083018a61227e565b8181036040830152612b038189612803565b90508181036060830152612b178188612803565b90508181036080830152612b2b8187612803565b9050612b3a60a083018661227e565b612b4760c08301856126c1565b81810360e0830152612b598184612803565b90509998505050505050505050565b600081519050919050565b600082825260208201905092915050565b6000819050602082019050919050565b6000612ba08383612534565b60208301905092915050565b6000602082019050919050565b6000612bc482612b68565b612bce8185612b73565b9350612bd983612b84565b8060005b83811015612c0a578151612bf18882612b94565b9750612bfc83612bac565b925050600181019050612bdd565b5085935050505092915050565b60006020820190508181036000830152612c318184612bb9565b905092915050565b60008115159050919050565b612c4e81612c39565b82525050565b600061010082019050612c6a600083018b61227e565b8181036020830152612c7c818a612803565b90508181036040830152612c908189612803565b9050612c9f60608301886126c1565b612cac608083018761227e565b612cb960a0830186612c45565b612cc660c083018561227e565b81810360e0830152612cd88184612803565b90509998505050505050505050565b600060e082019050612cfc600083018a61227e565b8181036020830152612d0e8189612803565b90508181036040830152612d228188612803565b9050612d3160608301876126c1565b612d3e608083018661227e565b612d4b60a0830185612c45565b81810360c0830152612d5d8184612803565b905098975050505050505050565b7f4f6e6c79206f7267616e697a65722063616e2063726561746520766f74657200600082015250565b6000612da1601f836127f2565b9150612dac82612d6b565b602082019050919050565b60006020820190508181036000830152612dd081612d94565b9050919050565b600060e0820190508181036000830152612df1818a612803565b90508181036020830152612e058189612803565b9050612e1460408301886126c1565b612e21606083018761227e565b612e2e6080830186612c45565b612e3b60a083018561227e565b81810360c0830152612e4d8184612803565b905098975050505050505050565b7f4e487b7100000000000000000000000000000000000000000000000000000000600052602260045260246000fd5b60006002820490506001821680612ea257607f821691505b60208210811415612eb657612eb5612e5b565b5b50919050565b7f4f6e6c79206f7267616e697a65722063616e2063726561746520616e20656c6560008201527f6374696f6e000000000000000000000000000000000000000000000000000000602082015250565b6000612f186025836127f2565b9150612f2382612ebc565b604082019050919050565b60006020820190508181036000830152612f4781612f0b565b9050919050565b600060a0820190508181036000830152612f688188612803565b90508181036020830152612f7c8187612803565b90508181036040830152612f908186612803565b90508181036060830152612fa48185612803565b90508181036080830152612fb88184612803565b90509695505050505050565b7f596f75206861766520616c726561647920766f74656400000000000000000000600082015250565b6000612ffa6016836127f2565b915061300582612fc4565b602082019050919050565b6000602082019050818103600083015261302981612fed565b9050919050565b7f596f752068617665206e6f20726967687420746f20766f746500000000000000600082015250565b60006130666019836127f2565b915061307182613030565b602082019050919050565b6000602082019050818103600083015261309581613059565b9050919050565b7f4e487b7100000000000000000000000000000000000000000000000000000000600052601160045260246000fd5b60006130d68261221b565b91506130e18361221b565b9250827fffffffffffffffffffffffffffffffffffffffffffffffffffffffffffffffff038211156131165761311561309c565b5b828201905092915050565b7f4f6e6c79206f7267616e697a65722063616e206372656174652063616e64696460008201527f6174650000000000000000000000000000000000000000000000000000000000602082015250565b600061317d6023836127f2565b915061318882613121565b604082019050919050565b600060208201905081810360008301526131ac81613170565b9050919050565b600060e0820190506131c8600083018a61227e565b81810360208301526131da8189612803565b905081810360408301526131ee8188612803565b905081810360608301526132028187612803565b9050613211608083018661227e565b61321e60a08301856126c1565b81810360c08301526132308184612803565b905098975050505050505050565b600060208201905081810360008301526132588184612803565b905092915050565b7f4e487b7100000000000000000000000000000000000000000000000000000000600052605160045260246000fdfea264697066735822122095d6f0de0bd95250881ac436c08f70c70667f626246dda3479c9535b12cb3fd364736f6c63430008090033",
  "linkReferences": {},
  "deployedLinkReferences": {}
}