{
  "_format": "hh-sol-artifact-1",
  "contractName": "voting",
  "sourceName": "contracts/VotingContract.sol",
  "abi": [
    {
      "inputs": [],
      "stateMutability": "nonpayable",
      "type": "constructor"
    },
    {
      "anonymous": false,
      "inputs": [
        {
          "indexed": true,
          "internalType": "uint256",
          "name": "candidateid",
          "type": "uint256"
        },
        {
          "indexed": false,
          "internalType": "uint256",
          "name": "age",
          "type": "uint256"
        },
        {
          "indexed": false,
          "internalType": "string",
          "name": "name",
          "type": "string"
        },
        {
          "indexed": false,
          "internalType": "string",
          "name": "image",
          "type": "string"
        },
        {
          "indexed": false,
          "internalType": "uint256",
          "name": "votecount",
          "type": "uint256"
        },
        {
          "indexed": false,
          "internalType": "address",
          "name": "_address",
          "type": "address"
        },
        {
          "indexed": false,
          "internalType": "string",
          "name": "ipfs",
          "type": "string"
        }
      ],
      "name": "CandidateCreate",
      "type": "event"
    },
    {
      "anonymous": false,
      "inputs": [
        {
          "indexed": true,
          "internalType": "uint256",
          "name": "voter_voterId",
          "type": "uint256"
        },
        {
          "indexed": false,
          "internalType": "string",
          "name": "voter_name",
          "type": "string"
        },
        {
          "indexed": false,
          "internalType": "string",
          "name": "voter_image",
          "type": "string"
        },
        {
          "indexed": false,
          "internalType": "address",
          "name": "voter_address",
          "type": "address"
        },
        {
          "indexed": false,
          "internalType": "uint256",
          "name": "voter_allowed",
          "type": "uint256"
        },
        {
          "indexed": false,
          "internalType": "bool",
          "name": "voter_voted",
          "type": "bool"
        },
        {
          "indexed": false,
          "internalType": "uint256",
          "name": "voter_vote",
          "type": "uint256"
        },
        {
          "indexed": false,
          "internalType": "string",
          "name": "voter_ipfs",
          "type": "string"
        }
      ],
      "name": "VoterCreated",
      "type": "event"
    },
    {
      "inputs": [],
      "name": "_candidateid",
      "outputs": [
        {
          "internalType": "uint256",
          "name": "_value",
          "type": "uint256"
        }
      ],
      "stateMutability": "view",
      "type": "function"
    },
    {
      "inputs": [],
      "name": "_voterid",
      "outputs": [
        {
          "internalType": "uint256",
          "name": "_value",
          "type": "uint256"
        }
      ],
      "stateMutability": "view",
      "type": "function"
    },
    {
      "inputs": [
        {
          "internalType": "uint256",
          "name": "",
          "type": "uint256"
        }
      ],
      "name": "candidateAddress",
      "outputs": [
        {
          "internalType": "address",
          "name": "",
          "type": "address"
        }
      ],
      "stateMutability": "view",
      "type": "function"
    },
    {
      "inputs": [
        {
          "internalType": "address",
          "name": "",
          "type": "address"
        }
      ],
      "name": "candidates",
      "outputs": [
        {
          "internalType": "uint256",
          "name": "candidateid",
          "type": "uint256"
        },
        {
          "internalType": "uint256",
          "name": "age",
          "type": "uint256"
        },
        {
          "internalType": "string",
          "name": "name",
          "type": "string"
        },
        {
          "internalType": "string",
          "name": "image",
          "type": "string"
        },
        {
          "internalType": "uint256",
          "name": "votecount",
          "type": "uint256"
        },
        {
          "internalType": "address",
          "name": "_address",
          "type": "address"
        },
        {
          "internalType": "string",
          "name": "ipfs",
          "type": "string"
        }
      ],
      "stateMutability": "view",
      "type": "function"
    },
    {
      "inputs": [],
      "name": "getCandidate",
      "outputs": [
        {
          "internalType": "address[]",
          "name": "",
          "type": "address[]"
        }
      ],
      "stateMutability": "view",
      "type": "function"
    },
    {
      "inputs": [
        {
          "internalType": "address",
          "name": "_address",
          "type": "address"
        }
      ],
      "name": "getCandidateData",
      "outputs": [
        {
          "internalType": "uint256",
          "name": "",
          "type": "uint256"
        },
        {
          "internalType": "string",
          "name": "",
          "type": "string"
        },
        {
          "internalType": "uint256",
          "name": "",
          "type": "uint256"
        },
        {
          "internalType": "string",
          "name": "",
          "type": "string"
        },
        {
          "internalType": "uint256",
          "name": "",
          "type": "uint256"
        },
        {
          "internalType": "string",
          "name": "",
          "type": "string"
        },
        {
          "internalType": "address",
          "name": "",
          "type": "address"
        }
      ],
      "stateMutability": "view",
      "type": "function"
    },
    {
      "inputs": [],
      "name": "getCandidateLength",
      "outputs": [
        {
          "internalType": "uint256",
          "name": "",
          "type": "uint256"
        }
      ],
      "stateMutability": "view",
      "type": "function"
    },
    {
      "inputs": [],
      "name": "getVotedVoterList",
      "outputs": [
        {
          "internalType": "address[]",
          "name": "",
          "type": "address[]"
        }
      ],
      "stateMutability": "view",
      "type": "function"
    },
    {
      "inputs": [],
      "name": "getVoterLength",
      "outputs": [
        {
          "internalType": "uint256",
          "name": "",
          "type": "uint256"
        }
      ],
      "stateMutability": "view",
      "type": "function"
    },
    {
      "inputs": [
        {
          "internalType": "address",
          "name": "_address",
          "type": "address"
        }
      ],
      "name": "getVoterdata",
      "outputs": [
        {
          "internalType": "uint256",
          "name": "",
          "type": "uint256"
        },
        {
          "internalType": "string",
          "name": "",
          "type": "string"
        },
        {
          "internalType": "string",
          "name": "",
          "type": "string"
        },
        {
          "internalType": "address",
          "name": "",
          "type": "address"
        },
        {
          "internalType": "uint256",
          "name": "",
          "type": "uint256"
        },
        {
          "internalType": "bool",
          "name": "",
          "type": "bool"
        },
        {
          "internalType": "string",
          "name": "",
          "type": "string"
        }
      ],
      "stateMutability": "view",
      "type": "function"
    },
    {
      "inputs": [],
      "name": "getVotersList",
      "outputs": [
        {
          "internalType": "address[]",
          "name": "",
          "type": "address[]"
        }
      ],
      "stateMutability": "view",
      "type": "function"
    },
    {
      "inputs": [
        {
          "internalType": "address",
          "name": "_address",
          "type": "address"
        },
        {
          "internalType": "uint256",
          "name": "_age",
          "type": "uint256"
        },
        {
          "internalType": "string",
          "name": "_name",
          "type": "string"
        },
        {
          "internalType": "string",
          "name": "_image",
          "type": "string"
        },
        {
          "internalType": "string",
          "name": "_ipfs",
          "type": "string"
        }
      ],
      "name": "setCandidate",
      "outputs": [],
      "stateMutability": "nonpayable",
      "type": "function"
    },
    {
      "inputs": [
        {
          "internalType": "address",
          "name": "_candidateAddress",
          "type": "address"
        },
        {
          "internalType": "uint256",
          "name": "_candidateVoteId",
          "type": "uint256"
        }
      ],
      "name": "vote",
      "outputs": [],
      "stateMutability": "nonpayable",
      "type": "function"
    },
    {
      "inputs": [
        {
          "internalType": "uint256",
          "name": "",
          "type": "uint256"
        }
      ],
      "name": "votedVoters",
      "outputs": [
        {
          "internalType": "address",
          "name": "",
          "type": "address"
        }
      ],
      "stateMutability": "view",
      "type": "function"
    },
    {
      "inputs": [
        {
          "internalType": "address",
          "name": "_address",
          "type": "address"
        },
        {
          "internalType": "string",
          "name": "_name",
          "type": "string"
        },
        {
          "internalType": "string",
          "name": "_image",
          "type": "string"
        },
        {
          "internalType": "string",
          "name": "_ipfs",
          "type": "string"
        }
      ],
      "name": "voterRight",
      "outputs": [],
      "stateMutability": "nonpayable",
      "type": "function"
    },
    {
      "inputs": [
        {
          "internalType": "address",
          "name": "",
          "type": "address"
        }
      ],
      "name": "voters",
      "outputs": [
        {
          "internalType": "uint256",
          "name": "voter_voterId",
          "type": "uint256"
        },
        {
          "internalType": "string",
          "name": "voter_name",
          "type": "string"
        },
        {
          "internalType": "string",
          "name": "voter_image",
          "type": "string"
        },
        {
          "internalType": "address",
          "name": "voter_address",
          "type": "address"
        },
        {
          "internalType": "uint256",
          "name": "voter_allowed",
          "type": "uint256"
        },
        {
          "internalType": "bool",
          "name": "voter_voted",
          "type": "bool"
        },
        {
          "internalType": "uint256",
          "name": "voter_vote",
          "type": "uint256"
        },
        {
          "internalType": "string",
          "name": "voter_ipfs",
          "type": "string"
        }
      ],
      "stateMutability": "view",
      "type": "function"
    },
    {
      "inputs": [
        {
          "internalType": "uint256",
          "name": "",
          "type": "uint256"
        }
      ],
      "name": "votersAddress",
      "outputs": [
        {
          "internalType": "address",
          "name": "",
          "type": "address"
        }
      ],
      "stateMutability": "view",
      "type": "function"
    },
    {
      "inputs": [],
      "name": "votingOrganizer",
      "outputs": [
        {
          "internalType": "address",
          "name": "",
          "type": "address"
        }
      ],
      "stateMutability": "view",
      "type": "function"
    }
  ],
  "bytecode": "0x608060405234801561001057600080fd5b5033600260006101000a81548173ffffffffffffffffffffffffffffffffffffffff021916908373ffffffffffffffffffffffffffffffffffffffff16021790555061279c806100616000396000f3fe608060405234801561001057600080fd5b50600436106101165760003560e01c806370218b85116100a2578063a3ec138d11610071578063a3ec138d14610303578063bc86f3851461033a578063c5036fd414610358578063f4abecd21461038e578063f7522a83146103aa57610116565b806370218b85146102615780637831ffb31461027f5780638ab66a90146102af5780638e945685146102e557610116565b80633a88251a116100e95780633a88251a146101a957806343242daa146101d95780635cc48aa7146102095780635f74bbde1461022757806368baccf01461024357610116565b80630361419e1461011b57806305ad45a4146101375780630cdc4e26146101555780632a466ac714610173575b600080fd5b61013560048036038101906101309190611d0f565b6103c8565b005b61013f6106d1565b60405161014c9190611de3565b60405180910390f35b61015d6106de565b60405161016a9190611de3565b60405180910390f35b61018d60048036038101906101889190611dfe565b6106ea565b6040516101a09796959493929190611ec2565b60405180910390f35b6101c360048036038101906101be9190611f72565b610aa7565b6040516101d09190611f9f565b60405180910390f35b6101f360048036038101906101ee9190611f72565b610ae6565b6040516102009190611f9f565b60405180910390f35b610211610b25565b60405161021e9190611f9f565b60405180910390f35b610241600480360381019061023c9190611fba565b610b4b565b005b61024b610d13565b6040516102589190611de3565b60405180910390f35b610269610d1f565b60405161027691906120b8565b60405180910390f35b61029960048036038101906102949190611f72565b610deb565b6040516102a69190611f9f565b60405180910390f35b6102c960048036038101906102c49190611dfe565b610e2a565b6040516102dc97969594939291906120da565b60405180910390f35b6102ed611024565b6040516102fa91906120b8565b60405180910390f35b61031d60048036038101906103189190611dfe565b6110b2565b604051610331989796959493929190612179565b60405180910390f35b6103426112bf565b60405161034f91906120b8565b60405180910390f35b610372600480360381019061036d9190611dfe565b61134d565b604051610385979695949392919061220c565b60405180910390f35b6103a860048036038101906103a39190612290565b611715565b005b6103b261199a565b6040516103bf9190611de3565b60405180910390f35b6104066040518060400160405280601a81526020017f566f74657272696768742066756e6374696f6e2063616c6c65640000000000008152506119a7565b3373ffffffffffffffffffffffffffffffffffffffff16600260009054906101000a900473ffffffffffffffffffffffffffffffffffffffff1673ffffffffffffffffffffffffffffffffffffffff1614610496576040517f08c379a000000000000000000000000000000000000000000000000000000000815260040161048d906123ab565b60405180910390fd5b6104a06000611a40565b60006104ac6000611a56565b90506000600760008773ffffffffffffffffffffffffffffffffffffffff1673ffffffffffffffffffffffffffffffffffffffff1681526020019081526020016000209050600081600401541461050257600080fd5b6001816004018190555084816001019080519060200190610524929190611aaa565b508381600201908051906020019061053d929190611aaa565b50858160030160006101000a81548173ffffffffffffffffffffffffffffffffffffffff021916908373ffffffffffffffffffffffffffffffffffffffff1602179055508181600001819055506103e8816006018190555060008160050160006101000a81548160ff021916908315150217905550828160070190805190602001906105ca929190611aaa565b506006869080600181540180825580915050600190039060005260206000200160009091909190916101000a81548173ffffffffffffffffffffffffffffffffffffffff021916908373ffffffffffffffffffffffffffffffffffffffff160217905550817ff5f39971dd62d9929e3a9feaa6bb77fe7c7da0001babff8a65a7e51ad0201c1986868985600401548660050160009054906101000a900460ff1687600601548a60405161068397969594939291906123cb565b60405180910390a26106c96040518060400160405280601a81526020017f566f74657272696768742066756e6374696f6e2063616c6c65640000000000008152506119a7565b505050505050565b6000600680549050905090565b60008060000154905081565b6000606060006060600060606000600460008973ffffffffffffffffffffffffffffffffffffffff1673ffffffffffffffffffffffffffffffffffffffff16815260200190815260200160002060010154600460008a73ffffffffffffffffffffffffffffffffffffffff1673ffffffffffffffffffffffffffffffffffffffff168152602001908152602001600020600201600460008b73ffffffffffffffffffffffffffffffffffffffff1673ffffffffffffffffffffffffffffffffffffffff16815260200190815260200160002060000154600460008c73ffffffffffffffffffffffffffffffffffffffff1673ffffffffffffffffffffffffffffffffffffffff168152602001908152602001600020600301600460008d73ffffffffffffffffffffffffffffffffffffffff1673ffffffffffffffffffffffffffffffffffffffff16815260200190815260200160002060040154600460008e73ffffffffffffffffffffffffffffffffffffffff1673ffffffffffffffffffffffffffffffffffffffff168152602001908152602001600020600601600460008f73ffffffffffffffffffffffffffffffffffffffff1673ffffffffffffffffffffffffffffffffffffffff16815260200190815260200160002060050160009054906101000a900473ffffffffffffffffffffffffffffffffffffffff168580546108f69061247e565b80601f01602080910402602001604051908101604052809291908181526020018280546109229061247e565b801561096f5780601f106109445761010080835404028352916020019161096f565b820191906000526020600020905b81548152906001019060200180831161095257829003601f168201915b505050505095508380546109829061247e565b80601f01602080910402602001604051908101604052809291908181526020018280546109ae9061247e565b80156109fb5780601f106109d0576101008083540402835291602001916109fb565b820191906000526020600020905b8154815290600101906020018083116109de57829003601f168201915b50505050509350818054610a0e9061247e565b80601f0160208091040260200160405190810160405280929190818152602001828054610a3a9061247e565b8015610a875780601f10610a5c57610100808354040283529160200191610a87565b820191906000526020600020905b815481529060010190602001808311610a6a57829003601f168201915b505050505091509650965096509650965096509650919395979092949650565b60038181548110610ab757600080fd5b906000526020600020016000915054906101000a900473ffffffffffffffffffffffffffffffffffffffff1681565b60068181548110610af657600080fd5b906000526020600020016000915054906101000a900473ffffffffffffffffffffffffffffffffffffffff1681565b600260009054906101000a900473ffffffffffffffffffffffffffffffffffffffff1681565b6000600760003373ffffffffffffffffffffffffffffffffffffffff1673ffffffffffffffffffffffffffffffffffffffff16815260200190815260200160002090508060050160009054906101000a900460ff1615610be0576040517f08c379a0000000000000000000000000000000000000000000000000000000008152600401610bd7906124fc565b60405180910390fd5b600081600401541415610c28576040517f08c379a0000000000000000000000000000000000000000000000000000000008152600401610c1f90612568565b60405180910390fd5b60018160050160006101000a81548160ff0219169083151502179055508181600601819055506005339080600181540180825580915050600190039060005260206000200160009091909190916101000a81548173ffffffffffffffffffffffffffffffffffffffff021916908373ffffffffffffffffffffffffffffffffffffffff1602179055508060040154600460008573ffffffffffffffffffffffffffffffffffffffff1673ffffffffffffffffffffffffffffffffffffffff1681526020019081526020016000206004016000828254610d0791906125b7565b92505081905550505050565b60018060000154905081565b6060610d5f6040518060400160405280601c81526020017f67657443616e6469646174652066756e6374696f6e2063616c6c6564000000008152506119a7565b6003805480602002602001604051908101604052809291908181526020018280548015610de157602002820191906000526020600020905b8160009054906101000a900473ffffffffffffffffffffffffffffffffffffffff1673ffffffffffffffffffffffffffffffffffffffff1681526020019060010190808311610d97575b5050505050905090565b60058181548110610dfb57600080fd5b906000526020600020016000915054906101000a900473ffffffffffffffffffffffffffffffffffffffff1681565b6004602052806000526040600020600091509050806000015490806001015490806002018054610e599061247e565b80601f0160208091040260200160405190810160405280929190818152602001828054610e859061247e565b8015610ed25780601f10610ea757610100808354040283529160200191610ed2565b820191906000526020600020905b815481529060010190602001808311610eb557829003601f168201915b505050505090806003018054610ee79061247e565b80601f0160208091040260200160405190810160405280929190818152602001828054610f139061247e565b8015610f605780601f10610f3557610100808354040283529160200191610f60565b820191906000526020600020905b815481529060010190602001808311610f4357829003601f168201915b5050505050908060040154908060050160009054906101000a900473ffffffffffffffffffffffffffffffffffffffff1690806006018054610fa19061247e565b80601f0160208091040260200160405190810160405280929190818152602001828054610fcd9061247e565b801561101a5780601f10610fef5761010080835404028352916020019161101a565b820191906000526020600020905b815481529060010190602001808311610ffd57829003601f168201915b5050505050905087565b606060058054806020026020016040519081016040528092919081815260200182805480156110a857602002820191906000526020600020905b8160009054906101000a900473ffffffffffffffffffffffffffffffffffffffff1673ffffffffffffffffffffffffffffffffffffffff168152602001906001019080831161105e575b5050505050905090565b60076020528060005260406000206000915090508060000154908060010180546110db9061247e565b80601f01602080910402602001604051908101604052809291908181526020018280546111079061247e565b80156111545780601f1061112957610100808354040283529160200191611154565b820191906000526020600020905b81548152906001019060200180831161113757829003601f168201915b5050505050908060020180546111699061247e565b80601f01602080910402602001604051908101604052809291908181526020018280546111959061247e565b80156111e25780601f106111b7576101008083540402835291602001916111e2565b820191906000526020600020905b8154815290600101906020018083116111c557829003601f168201915b5050505050908060030160009054906101000a900473ffffffffffffffffffffffffffffffffffffffff16908060040154908060050160009054906101000a900460ff169080600601549080600701805461123c9061247e565b80601f01602080910402602001604051908101604052809291908181526020018280546112689061247e565b80156112b55780601f1061128a576101008083540402835291602001916112b5565b820191906000526020600020905b81548152906001019060200180831161129857829003601f168201915b5050505050905088565b6060600680548060200260200160405190810160405280929190818152602001828054801561134357602002820191906000526020600020905b8160009054906101000a900473ffffffffffffffffffffffffffffffffffffffff1673ffffffffffffffffffffffffffffffffffffffff16815260200190600101908083116112f9575b5050505050905090565b600060608060008060006060600760008973ffffffffffffffffffffffffffffffffffffffff1673ffffffffffffffffffffffffffffffffffffffff16815260200190815260200160002060000154600760008a73ffffffffffffffffffffffffffffffffffffffff1673ffffffffffffffffffffffffffffffffffffffff168152602001908152602001600020600101600760008b73ffffffffffffffffffffffffffffffffffffffff1673ffffffffffffffffffffffffffffffffffffffff168152602001908152602001600020600201600760008c73ffffffffffffffffffffffffffffffffffffffff1673ffffffffffffffffffffffffffffffffffffffff16815260200190815260200160002060030160009054906101000a900473ffffffffffffffffffffffffffffffffffffffff16600760008d73ffffffffffffffffffffffffffffffffffffffff1673ffffffffffffffffffffffffffffffffffffffff16815260200190815260200160002060040154600760008e73ffffffffffffffffffffffffffffffffffffffff1673ffffffffffffffffffffffffffffffffffffffff16815260200190815260200160002060050160009054906101000a900460ff16600760008f73ffffffffffffffffffffffffffffffffffffffff1673ffffffffffffffffffffffffffffffffffffffff1681526020019081526020016000206007018580546115649061247e565b80601f01602080910402602001604051908101604052809291908181526020018280546115909061247e565b80156115dd5780601f106115b2576101008083540402835291602001916115dd565b820191906000526020600020905b8154815290600101906020018083116115c057829003601f168201915b505050505095508480546115f09061247e565b80601f016020809104026020016040519081016040528092919081815260200182805461161c9061247e565b80156116695780601f1061163e57610100808354040283529160200191611669565b820191906000526020600020905b81548152906001019060200180831161164c57829003601f168201915b5050505050945080805461167c9061247e565b80601f01602080910402602001604051908101604052809291908181526020018280546116a89061247e565b80156116f55780601f106116ca576101008083540402835291602001916116f5565b820191906000526020600020905b8154815290600101906020018083116116d857829003601f168201915b505050505090509650965096509650965096509650919395979092949650565b6117536040518060400160405280601c81526020017f67657443616e6469646174652066756e6374696f6e2063616c6c6564000000008152506119a7565b3373ffffffffffffffffffffffffffffffffffffffff16600260009054906101000a900473ffffffffffffffffffffffffffffffffffffffff1673ffffffffffffffffffffffffffffffffffffffff16146117e3576040517f08c379a00000000000000000000000000000000000000000000000000000000081526004016117da9061267f565b60405180910390fd5b6117ed6001611a40565b60006117f96001611a56565b90506000600460008873ffffffffffffffffffffffffffffffffffffffff1673ffffffffffffffffffffffffffffffffffffffff16815260200190815260200160002090508581600101819055508481600201908051906020019061185f929190611aaa565b5081816000018190555083816003019080519060200190611881929190611aaa565b5060008160040181905550828160060190805190602001906118a4929190611aaa565b50868160050160006101000a81548173ffffffffffffffffffffffffffffffffffffffff021916908373ffffffffffffffffffffffffffffffffffffffff1602179055506003879080600181540180825580915050600190039060005260206000200160009091909190916101000a81548173ffffffffffffffffffffffffffffffffffffffff021916908373ffffffffffffffffffffffffffffffffffffffff160217905550817fa0bb2859e614d6df5a180bd5c06e70c2f058288ebf559a5751e8865cda8654c987878785600401548c896040516119899695949392919061269f565b60405180910390a250505050505050565b6000600380549050905090565b611a3d816040516024016119bb9190612715565b6040516020818303038152906040527f41304fac000000000000000000000000000000000000000000000000000000007bffffffffffffffffffffffffffffffffffffffffffffffffffffffff19166020820180517bffffffffffffffffffffffffffffffffffffffffffffffffffffffff8381831617835250505050611a64565b50565b6001816000016000828254019250508190555050565b600081600001549050919050565b611a7b81611a73611a7e611a9f565b63ffffffff16565b50565b60006a636f6e736f6c652e6c6f679050600080835160208501845afa505050565b611b30819050919050565b828054611ab69061247e565b90600052602060002090601f016020900481019282611ad85760008555611b1f565b82601f10611af157805160ff1916838001178555611b1f565b82800160010185558215611b1f579182015b82811115611b1e578251825591602001919060010190611b03565b5b509050611b2c9190611b3a565b5090565b611b38612737565b565b5b80821115611b53576000816000905550600101611b3b565b5090565b6000604051905090565b600080fd5b600080fd5b600073ffffffffffffffffffffffffffffffffffffffff82169050919050565b6000611b9682611b6b565b9050919050565b611ba681611b8b565b8114611bb157600080fd5b50565b600081359050611bc381611b9d565b92915050565b600080fd5b600080fd5b6000601f19601f8301169050919050565b7f4e487b7100000000000000000000000000000000000000000000000000000000600052604160045260246000fd5b611c1c82611bd3565b810181811067ffffffffffffffff82111715611c3b57611c3a611be4565b5b80604052505050565b6000611c4e611b57565b9050611c5a8282611c13565b919050565b600067ffffffffffffffff821115611c7a57611c79611be4565b5b611c8382611bd3565b9050602081019050919050565b82818337600083830152505050565b6000611cb2611cad84611c5f565b611c44565b905082815260208101848484011115611cce57611ccd611bce565b5b611cd9848285611c90565b509392505050565b600082601f830112611cf657611cf5611bc9565b5b8135611d06848260208601611c9f565b91505092915050565b60008060008060808587031215611d2957611d28611b61565b5b6000611d3787828801611bb4565b945050602085013567ffffffffffffffff811115611d5857611d57611b66565b5b611d6487828801611ce1565b935050604085013567ffffffffffffffff811115611d8557611d84611b66565b5b611d9187828801611ce1565b925050606085013567ffffffffffffffff811115611db257611db1611b66565b5b611dbe87828801611ce1565b91505092959194509250565b6000819050919050565b611ddd81611dca565b82525050565b6000602082019050611df86000830184611dd4565b92915050565b600060208284031215611e1457611e13611b61565b5b6000611e2284828501611bb4565b91505092915050565b600081519050919050565b600082825260208201905092915050565b60005b83811015611e65578082015181840152602081019050611e4a565b83811115611e74576000848401525b50505050565b6000611e8582611e2b565b611e8f8185611e36565b9350611e9f818560208601611e47565b611ea881611bd3565b840191505092915050565b611ebc81611b8b565b82525050565b600060e082019050611ed7600083018a611dd4565b8181036020830152611ee98189611e7a565b9050611ef86040830188611dd4565b8181036060830152611f0a8187611e7a565b9050611f196080830186611dd4565b81810360a0830152611f2b8185611e7a565b9050611f3a60c0830184611eb3565b98975050505050505050565b611f4f81611dca565b8114611f5a57600080fd5b50565b600081359050611f6c81611f46565b92915050565b600060208284031215611f8857611f87611b61565b5b6000611f9684828501611f5d565b91505092915050565b6000602082019050611fb46000830184611eb3565b92915050565b60008060408385031215611fd157611fd0611b61565b5b6000611fdf85828601611bb4565b9250506020611ff085828601611f5d565b9150509250929050565b600081519050919050565b600082825260208201905092915050565b6000819050602082019050919050565b61202f81611b8b565b82525050565b60006120418383612026565b60208301905092915050565b6000602082019050919050565b600061206582611ffa565b61206f8185612005565b935061207a83612016565b8060005b838110156120ab5781516120928882612035565b975061209d8361204d565b92505060018101905061207e565b5085935050505092915050565b600060208201905081810360008301526120d2818461205a565b905092915050565b600060e0820190506120ef600083018a611dd4565b6120fc6020830189611dd4565b818103604083015261210e8188611e7a565b905081810360608301526121228187611e7a565b90506121316080830186611dd4565b61213e60a0830185611eb3565b81810360c08301526121508184611e7a565b905098975050505050505050565b60008115159050919050565b6121738161215e565b82525050565b60006101008201905061218f600083018b611dd4565b81810360208301526121a1818a611e7a565b905081810360408301526121b58189611e7a565b90506121c46060830188611eb3565b6121d16080830187611dd4565b6121de60a083018661216a565b6121eb60c0830185611dd4565b81810360e08301526121fd8184611e7a565b90509998505050505050505050565b600060e082019050612221600083018a611dd4565b81810360208301526122338189611e7a565b905081810360408301526122478188611e7a565b90506122566060830187611eb3565b6122636080830186611dd4565b61227060a083018561216a565b81810360c08301526122828184611e7a565b905098975050505050505050565b600080600080600060a086880312156122ac576122ab611b61565b5b60006122ba88828901611bb4565b95505060206122cb88828901611f5d565b945050604086013567ffffffffffffffff8111156122ec576122eb611b66565b5b6122f888828901611ce1565b935050606086013567ffffffffffffffff81111561231957612318611b66565b5b61232588828901611ce1565b925050608086013567ffffffffffffffff81111561234657612345611b66565b5b61235288828901611ce1565b9150509295509295909350565b7f4f6e6c79206f7267616e697a65722063616e2063726561746520766f74657200600082015250565b6000612395601f83611e36565b91506123a08261235f565b602082019050919050565b600060208201905081810360008301526123c481612388565b9050919050565b600060e08201905081810360008301526123e5818a611e7a565b905081810360208301526123f98189611e7a565b90506124086040830188611eb3565b6124156060830187611dd4565b612422608083018661216a565b61242f60a0830185611dd4565b81810360c08301526124418184611e7a565b905098975050505050505050565b7f4e487b7100000000000000000000000000000000000000000000000000000000600052602260045260246000fd5b6000600282049050600182168061249657607f821691505b602082108114156124aa576124a961244f565b5b50919050565b7f596f75206861766520616c726561647920766f74656400000000000000000000600082015250565b60006124e6601683611e36565b91506124f1826124b0565b602082019050919050565b60006020820190508181036000830152612515816124d9565b9050919050565b7f596f752068617665206e6f20726967687420746f20766f746500000000000000600082015250565b6000612552601983611e36565b915061255d8261251c565b602082019050919050565b6000602082019050818103600083015261258181612545565b9050919050565b7f4e487b7100000000000000000000000000000000000000000000000000000000600052601160045260246000fd5b60006125c282611dca565b91506125cd83611dca565b9250827fffffffffffffffffffffffffffffffffffffffffffffffffffffffffffffffff0382111561260257612601612588565b5b828201905092915050565b7f4f6e6c79206f7267616e697a65722063616e206372656174652063616e64696460008201527f6174650000000000000000000000000000000000000000000000000000000000602082015250565b6000612669602383611e36565b91506126748261260d565b604082019050919050565b600060208201905081810360008301526126988161265c565b9050919050565b600060c0820190506126b46000830189611dd4565b81810360208301526126c68188611e7a565b905081810360408301526126da8187611e7a565b90506126e96060830186611dd4565b6126f66080830185611eb3565b81810360a08301526127088184611e7a565b9050979650505050505050565b6000602082019050818103600083015261272f8184611e7a565b905092915050565b7f4e487b7100000000000000000000000000000000000000000000000000000000600052605160045260246000fdfea2646970667358221220c9904024e8015a54d6840e2ea91b77642acbfddd5c5802c20d76443598572bdd64736f6c63430008090033",
  "linkReferences": {},
  "deployedLinkReferences": {}
}